{
  "contractName": "ForwarderFactory",
  "abi": [
    {
      "inputs": [],
      "stateMutability": "nonpayable",
      "type": "constructor"
    },
    {
      "inputs": [],
      "name": "erc20Implementation",
      "outputs": [
        {
          "internalType": "address",
          "name": "",
          "type": "address"
        }
      ],
      "stateMutability": "view",
      "type": "function",
      "constant": true
    },
    {
      "inputs": [],
      "name": "ethImplementation",
      "outputs": [
        {
          "internalType": "address",
          "name": "",
          "type": "address"
        }
      ],
      "stateMutability": "view",
      "type": "function",
      "constant": true
    },
    {
      "inputs": [
        {
          "internalType": "address",
          "name": "_destination",
          "type": "address"
        }
      ],
      "name": "getForwarder",
      "outputs": [
        {
          "internalType": "address",
          "name": "forwarder",
          "type": "address"
        }
      ],
      "stateMutability": "view",
      "type": "function",
      "constant": true
    },
    {
      "inputs": [
        {
          "internalType": "address payable",
          "name": "_destination",
          "type": "address"
        },
        {
          "internalType": "address",
          "name": "_token",
          "type": "address"
        }
      ],
      "name": "forward",
      "outputs": [],
      "stateMutability": "nonpayable",
      "type": "function"
    },
    {
      "inputs": [],
      "name": "getImplementation",
      "outputs": [
        {
          "internalType": "address",
          "name": "implementation",
          "type": "address"
        }
      ],
      "stateMutability": "view",
      "type": "function",
      "constant": true
    }
  ],
  "bytecode": "0x608060405234801561001057600080fd5b5060405161001d906101b4565b604051809103906000f080158015610039573d6000803e3d6000fd5b506000806101000a81548173ffffffffffffffffffffffffffffffffffffffff021916908373ffffffffffffffffffffffffffffffffffffffff160217905550604051610085906101c1565b604051809103906000f0801580156100a1573d6000803e3d6000fd5b50600160006101000a81548173ffffffffffffffffffffffffffffffffffffffff021916908373ffffffffffffffffffffffffffffffffffffffff1602179055506040518060400160405280601d81526020017f5860208158601c335a63aaf10f428752fa158151803b80938091923cf30000008152506002908051906020019061012d9291906101ce565b506002604051602001808280546001816001161561010002031660029004801561018e5780601f1061016c57610100808354040283529182019161018e565b820191906000526020600020905b81548152906001019060200180831161017a575b50509150506040516020818303038152906040528051906020012060038190555061026b565b6101a380610a5683390190565b6102b080610bf983390190565b828054600181600116156101000203166002900490600052602060002090601f016020900481019282601f1061020f57805160ff191683800117855561023d565b8280016001018555821561023d579182015b8281111561023c578251825591602001919060010190610221565b5b50905061024a919061024e565b5090565b5b8082111561026757600081600090555060010161024f565b5090565b6107dc8061027a6000396000f3fe608060405234801561001057600080fd5b50600436106100575760003560e01c80633b35c11b1461005c578063718534e114610090578063901be041146100fe57806395ccf8bf14610132578063aaf10f4214610196575b600080fd5b6100646101ca565b604051808273ffffffffffffffffffffffffffffffffffffffff16815260200191505060405180910390f35b6100d2600480360360208110156100a657600080fd5b81019080803573ffffffffffffffffffffffffffffffffffffffff1690602001909291905050506101ee565b604051808273ffffffffffffffffffffffffffffffffffffffff16815260200191505060405180910390f35b6101066102c4565b604051808273ffffffffffffffffffffffffffffffffffffffff16815260200191505060405180910390f35b6101946004803603604081101561014857600080fd5b81019080803573ffffffffffffffffffffffffffffffffffffffff169060200190929190803573ffffffffffffffffffffffffffffffffffffffff1690602001909291905050506102ea565b005b61019e6104b3565b604051808273ffffffffffffffffffffffffffffffffffffffff16815260200191505060405180910390f35b60008054906101000a900473ffffffffffffffffffffffffffffffffffffffff1681565b60008082604051602001808273ffffffffffffffffffffffffffffffffffffffff1660601b8152601401915050604051602081830303815290604052805190602001209050600060ff60f81b308360035460405160200180857effffffffffffffffffffffffffffffffffffffffffffffffffffffffffffff191681526001018473ffffffffffffffffffffffffffffffffffffffff1660601b81526014018381526020018281526020019450505050506040516020818303038152906040528051906020012090508060001c92505050919050565b600160009054906101000a900473ffffffffffffffffffffffffffffffffffffffff1681565b600073eeeeeeeeeeeeeeeeeeeeeeeeeeeeeeeeeeeeeeee73ffffffffffffffffffffffffffffffffffffffff168273ffffffffffffffffffffffffffffffffffffffff161461035b57600160009054906101000a900473ffffffffffffffffffffffffffffffffffffffff1661037d565b60008054906101000a900473ffffffffffffffffffffffffffffffffffffffff165b9050600061038b828561051a565b90508073ffffffffffffffffffffffffffffffffffffffff166395ccf8bf85856040518363ffffffff1660e01b8152600401808373ffffffffffffffffffffffffffffffffffffffff1681526020018273ffffffffffffffffffffffffffffffffffffffff16815260200192505050600060405180830381600087803b15801561041457600080fd5b505af1158015610428573d6000803e3d6000fd5b505050508073ffffffffffffffffffffffffffffffffffffffff16631beb2615856040518263ffffffff1660e01b8152600401808273ffffffffffffffffffffffffffffffffffffffff168152602001915050600060405180830381600087803b15801561049557600080fd5b505af11580156104a9573d6000803e3d6000fd5b5050505050505050565b6000600460003373ffffffffffffffffffffffffffffffffffffffff1673ffffffffffffffffffffffffffffffffffffffff16815260200190815260200160002060009054906101000a900473ffffffffffffffffffffffffffffffffffffffff16905090565b6000606060028054600181600116156101000203166002900480601f0160208091040260200160405190810160405280929190818152602001828054600181600116156101000203166002900480156105b45780601f10610589576101008083540402835291602001916105b4565b820191906000526020600020905b81548152906001019060200180831161059757829003601f168201915b50505050509050600083604051602001808273ffffffffffffffffffffffffffffffffffffffff1660601b8152601401915050604051602081830303815290604052805190602001209050600061060a856101ee565b905085600460008373ffffffffffffffffffffffffffffffffffffffff1673ffffffffffffffffffffffffffffffffffffffff16815260200190815260200160002060006101000a81548173ffffffffffffffffffffffffffffffffffffffff021916908373ffffffffffffffffffffffffffffffffffffffff1602179055508260200183518381836000f595505050600460008273ffffffffffffffffffffffffffffffffffffffff1673ffffffffffffffffffffffffffffffffffffffff16815260200190815260200160002060006101000a81549073ffffffffffffffffffffffffffffffffffffffff02191690558373ffffffffffffffffffffffffffffffffffffffff168173ffffffffffffffffffffffffffffffffffffffff161461079d576040517f08c379a000000000000000000000000000000000000000000000000000000000815260040180806020018281038252601a8152602001807f4661696c656420746f206465706c6f7920666f7277617264657200000000000081525060200191505060405180910390fd5b5050509291505056fea2646970667358221220a2de0c8a9436e000216b262de68709085a2c46413c0ef157b97e4d60f4aff08c64736f6c63430007000033608060405234801561001057600080fd5b50610183806100206000396000f3fe608060405234801561001057600080fd5b50600436106100365760003560e01c80631beb26151461003b57806395ccf8bf1461007f575b600080fd5b61007d6004803603602081101561005157600080fd5b81019080803573ffffffffffffffffffffffffffffffffffffffff1690602001909291905050506100e3565b005b6100e16004803603604081101561009557600080fd5b81019080803573ffffffffffffffffffffffffffffffffffffffff169060200190929190803573ffffffffffffffffffffffffffffffffffffffff1690602001909291905050506100fc565b005b8073ffffffffffffffffffffffffffffffffffffffff16ff5b60004790508273ffffffffffffffffffffffffffffffffffffffff166108fc829081150290604051600060405180830381858888f19350505050158015610147573d6000803e3d6000fd5b5050505056fea2646970667358221220ea3155294b33ce0cb16746aff1fa06495ed7701e419bb1ece5889154b01da62664736f6c63430007000033608060405234801561001057600080fd5b50610290806100206000396000f3fe608060405234801561001057600080fd5b50600436106100365760003560e01c80631beb26151461003b57806395ccf8bf1461007f575b600080fd5b61007d6004803603602081101561005157600080fd5b81019080803573ffffffffffffffffffffffffffffffffffffffff1690602001909291905050506100e3565b005b6100e16004803603604081101561009557600080fd5b81019080803573ffffffffffffffffffffffffffffffffffffffff169060200190929190803573ffffffffffffffffffffffffffffffffffffffff1690602001909291905050506100fc565b005b8073ffffffffffffffffffffffffffffffffffffffff16ff5b600081905060008173ffffffffffffffffffffffffffffffffffffffff166370a08231306040518263ffffffff1660e01b8152600401808273ffffffffffffffffffffffffffffffffffffffff16815260200191505060206040518083038186803b15801561016a57600080fd5b505afa15801561017e573d6000803e3d6000fd5b505050506040513d602081101561019457600080fd5b810190808051906020019092919050505090508173ffffffffffffffffffffffffffffffffffffffff1663a9059cbb85836040518363ffffffff1660e01b8152600401808373ffffffffffffffffffffffffffffffffffffffff16815260200182815260200192505050602060405180830381600087803b15801561021857600080fd5b505af115801561022c573d6000803e3d6000fd5b505050506040513d602081101561024257600080fd5b8101908080519060200190929190505050505050505056fea2646970667358221220b0bc6ee7a998d104f56126018bdbd468d2f3c5914038872d130c96931ba1167c64736f6c63430007000033",
  "immutableReferences": {},
  "source": "pragma solidity ^0.7.0;\n\nimport \"./IForwarder.sol\";\nimport \"./ETHForwarder.sol\";\nimport \"./ERC20Forwarder.sol\";\n\ncontract ForwarderFactory {\n\n    address constant internal ETH_TOKEN = 0xEeeeeEeeeEeEeeEeEeEeeEEEeeeeEeeeeeeeEEeE;\n\n    address public ethImplementation;\n    address public erc20Implementation;\n    bytes private initCode;\n    bytes32 private initCodeHash; \n\n    mapping (address => address) implementations;\n\n    constructor() public {\n        ethImplementation = address(new ETHForwarder());\n        erc20Implementation = address(new ERC20Forwarder());\n        initCode = (hex\"5860208158601c335a63aaf10f428752fa158151803b80938091923cf3\");\n        initCodeHash = keccak256(abi.encodePacked(initCode));\n    }\n\n    function getForwarder(address _destination) public view returns (address forwarder) {\n        bytes32 salt = keccak256(abi.encodePacked(_destination));\n        bytes32 hash = keccak256(abi.encodePacked(bytes1(0xff), address(this), salt, initCodeHash));\n        forwarder = address(uint160(uint256(hash)));\n    }\n\n    function forward(address payable _destination, address _token) external {\n        address implementation = _token == ETH_TOKEN ? ethImplementation : erc20Implementation;\n        IForwarder forwarder = _deployForwarder(implementation, _destination);\n        forwarder.forward(_destination, _token);\n        forwarder.destruct(_destination);\n    }\n\n    function _deployForwarder(address _implementation, address _destination) internal returns (IForwarder deployedForwarder) {\n        \n        // load the init code to memory\n        bytes memory mInitCode = initCode;\n\n        // compute the salt from the destination\n        bytes32 salt = keccak256(abi.encodePacked(_destination));\n\n        // get the expected address for the forwarder\n        address forwarder = getForwarder(_destination);\n\n        // store the implementation for the forwarder\n        implementations[forwarder] = _implementation;\n\n        // using inline assembly: load data and length of data, then call CREATE2.\n        /* solhint-disable no-inline-assembly */\n        assembly {\n            let encoded_data := add(0x20, mInitCode) // load initialization code.\n            let encoded_size := mload(mInitCode)     // load the init code's length.\n            deployedForwarder := create2( // call CREATE2 with 4 arguments.\n                0,                                    // do not forward any endowment.\n                encoded_data,                         // pass in initialization code.\n                encoded_size,                         // pass in init code's length.\n                salt                                  // pass in the salt value.\n            )\n        } /* solhint-enable no-inline-assembly */\n\n        // delete the stored implementation to save some gas\n        delete implementations[forwarder];\n\n        require(forwarder == address(deployedForwarder), \"Failed to deploy forwarder\");\n    }\n\n    function getImplementation() external view returns (address implementation) {\n        return implementations[msg.sender];\n    }\n}",
  "sourcePath": "/Users/julienniset/Argent/dev/deposit-forwarder/contracts/ForwarderFactory.sol",
  "compiler": {
    "name": "solc",
    "version": "0.7.0+commit.9e61f92b.Emscripten.clang"
  },
  "schemaVersion": "3.3.2",
  "updatedAt": "2020-11-13T09:40:35.740Z",
  "networkType": "ethereum",
  "devdoc": {
    "kind": "dev",
    "methods": {},
    "version": 1
  },
  "userdoc": {
    "kind": "user",
    "methods": {},
    "version": 1
  }
}