{
  "contractName": "MinimalForwarderFactory",
  "abi": [
    {
      "inputs": [],
      "stateMutability": "nonpayable",
      "type": "constructor"
    },
    {
      "inputs": [],
      "name": "implementation",
      "outputs": [
        {
          "internalType": "address",
          "name": "",
          "type": "address"
        }
      ],
      "stateMutability": "view",
      "type": "function",
      "constant": true
    },
    {
      "inputs": [],
      "name": "initCode",
      "outputs": [
        {
          "internalType": "bytes",
          "name": "",
          "type": "bytes"
        }
      ],
      "stateMutability": "view",
      "type": "function",
      "constant": true
    },
    {
      "inputs": [
        {
          "internalType": "address",
          "name": "_destination",
          "type": "address"
        }
      ],
      "name": "getForwarder",
      "outputs": [
        {
          "internalType": "address",
          "name": "forwarder",
          "type": "address"
        }
      ],
      "stateMutability": "view",
      "type": "function",
      "constant": true
    },
    {
      "inputs": [
        {
          "internalType": "address payable",
          "name": "_destination",
          "type": "address"
        },
        {
          "internalType": "address",
          "name": "_token",
          "type": "address"
        }
      ],
      "name": "forward",
      "outputs": [],
      "stateMutability": "nonpayable",
      "type": "function"
    }
  ],
  "bytecode": "0x608060405234801561001057600080fd5b5060405161001d90610179565b604051809103906000f080158015610039573d6000803e3d6000fd5b506000806101000a81548173ffffffffffffffffffffffffffffffffffffffff021916908373ffffffffffffffffffffffffffffffffffffffff1602179055506100a860008054906101000a900473ffffffffffffffffffffffffffffffffffffffff166100c360201b60201c565b600190805190602001906100bd929190610186565b50610223565b606060008260601b9050603767ffffffffffffffff811180156100e557600080fd5b506040519080825280601f01601f1916602001820160405280156101185781602001600182028036833780820191505090505b5091507f3d602d80600a3d3981f3363d3d373d3d3d363d7300000000000000000000000060208301528060146020018301527f5af43d82803e903d91602b57fd5bf30000000000000000000000000000000000602860200183015250919050565b61034b8061087983390190565b828054600181600116156101000203166002900490600052602060002090601f016020900481019282601f106101c757805160ff19168380011785556101f5565b828001600101855582156101f5579182015b828111156101f45782518255916020019190600101906101d9565b5b5090506102029190610206565b5090565b5b8082111561021f576000816000905550600101610207565b5090565b610647806102326000396000f3fe608060405234801561001057600080fd5b506004361061004c5760003560e01c80635c60da1b14610051578063718534e11461008557806395ccf8bf146100f3578063a926e7c714610157575b600080fd5b6100596101da565b604051808273ffffffffffffffffffffffffffffffffffffffff16815260200191505060405180910390f35b6100c76004803603602081101561009b57600080fd5b81019080803573ffffffffffffffffffffffffffffffffffffffff1690602001909291905050506101fe565b604051808273ffffffffffffffffffffffffffffffffffffffff16815260200191505060405180910390f35b6101556004803603604081101561010957600080fd5b81019080803573ffffffffffffffffffffffffffffffffffffffff169060200190929190803573ffffffffffffffffffffffffffffffffffffffff16906020019092919050505061034c565b005b61015f61047e565b6040518080602001828103825283818151815260200191508051906020019080838360005b8381101561019f578082015181840152602081019050610184565b50505050905090810190601f1680156101cc5780820380516001836020036101000a031916815260200191505b509250505060405180910390f35b60008054906101000a900473ffffffffffffffffffffffffffffffffffffffff1681565b60008082604051602001808273ffffffffffffffffffffffffffffffffffffffff1660601b8152601401915050604051602081830303815290604052805190602001209050600060ff60f81b3083600160405160200180828054600181600116156101000203166002900480156102ac5780601f1061028a5761010080835404028352918201916102ac565b820191906000526020600020905b815481529060010190602001808311610298575b50509150506040516020818303038152906040528051906020012060405160200180857effffffffffffffffffffffffffffffffffffffffffffffffffffffffffffff191681526001018473ffffffffffffffffffffffffffffffffffffffff1660601b81526014018381526020018281526020019450505050506040516020818303038152906040528051906020012090508060001c92505050919050565b60006103578361051c565b90508073ffffffffffffffffffffffffffffffffffffffff166395ccf8bf84846040518363ffffffff1660e01b8152600401808373ffffffffffffffffffffffffffffffffffffffff1681526020018273ffffffffffffffffffffffffffffffffffffffff16815260200192505050600060405180830381600087803b1580156103e057600080fd5b505af11580156103f4573d6000803e3d6000fd5b505050508073ffffffffffffffffffffffffffffffffffffffff16631beb2615846040518263ffffffff1660e01b8152600401808273ffffffffffffffffffffffffffffffffffffffff168152602001915050600060405180830381600087803b15801561046157600080fd5b505af1158015610475573d6000803e3d6000fd5b50505050505050565b60018054600181600116156101000203166002900480601f0160208091040260200160405190810160405280929190818152602001828054600181600116156101000203166002900480156105145780601f106104e957610100808354040283529160200191610514565b820191906000526020600020905b8154815290600101906020018083116104f757829003601f168201915b505050505081565b6000606060018054600181600116156101000203166002900480601f0160208091040260200160405190810160405280929190818152602001828054600181600116156101000203166002900480156105b65780601f1061058b576101008083540402835291602001916105b6565b820191906000526020600020905b81548152906001019060200180831161059957829003601f168201915b50505050509050600083604051602001808273ffffffffffffffffffffffffffffffffffffffff1660601b8152601401915050604051602081830303815290604052805190602001209050806037836000f59250505091905056fea2646970667358221220c2eff8bf84f66a785bf0e65180a12283a8012f2a1c8a3b348f46e1fdd615e83a64736f6c63430007000033608060405234801561001057600080fd5b5061032b806100206000396000f3fe608060405234801561001057600080fd5b50600436106100365760003560e01c80631beb26151461003b57806395ccf8bf1461007f575b600080fd5b61007d6004803603602081101561005157600080fd5b81019080803573ffffffffffffffffffffffffffffffffffffffff1690602001909291905050506100e3565b005b6100e16004803603604081101561009557600080fd5b81019080803573ffffffffffffffffffffffffffffffffffffffff169060200190929190803573ffffffffffffffffffffffffffffffffffffffff1690602001909291905050506100fc565b005b8073ffffffffffffffffffffffffffffffffffffffff16ff5b73eeeeeeeeeeeeeeeeeeeeeeeeeeeeeeeeeeeeeeee73ffffffffffffffffffffffffffffffffffffffff168173ffffffffffffffffffffffffffffffffffffffff1614156101965760004790508273ffffffffffffffffffffffffffffffffffffffff166108fc829081150290604051600060405180830381858888f1935050505015801561018f573d6000803e3d6000fd5b50506102f1565b600081905060008173ffffffffffffffffffffffffffffffffffffffff166370a08231306040518263ffffffff1660e01b8152600401808273ffffffffffffffffffffffffffffffffffffffff16815260200191505060206040518083038186803b15801561020457600080fd5b505afa158015610218573d6000803e3d6000fd5b505050506040513d602081101561022e57600080fd5b810190808051906020019092919050505090508173ffffffffffffffffffffffffffffffffffffffff1663a9059cbb85836040518363ffffffff1660e01b8152600401808373ffffffffffffffffffffffffffffffffffffffff16815260200182815260200192505050602060405180830381600087803b1580156102b257600080fd5b505af11580156102c6573d6000803e3d6000fd5b505050506040513d60208110156102dc57600080fd5b81019080805190602001909291905050505050505b505056fea264697066735822122065eb23d4119530d47e52cf37a47ede22b3ff7120343a314394649ade2b81760f64736f6c63430007000033",
  "immutableReferences": {},
  "source": "pragma solidity ^0.7.0;\n\nimport \"./IForwarder.sol\";\nimport \"./TokenForwarder.sol\";\n\ncontract MinimalForwarderFactory {\n\n    address public implementation;\n    bytes public initCode;\n\n    constructor() {\n        implementation = address(new TokenForwarder());\n        initCode = _getInitCode(implementation);\n    }\n\n    function getForwarder(address _destination) public view returns (address forwarder) {\n        bytes32 salt = keccak256(abi.encodePacked(_destination));\n        bytes32 hash = keccak256(abi.encodePacked(bytes1(0xff), address(this), salt, keccak256(abi.encodePacked(initCode))));\n        forwarder = address(uint160(uint256(hash)));\n    }\n\n    function forward(address payable _destination, address _token) external {\n        IForwarder forwarder = _deployForwarder(_destination);\n        forwarder.forward(_destination, _token);\n        forwarder.destruct(_destination);\n    }\n\n    function _deployForwarder(address _destination) internal returns (IForwarder forwarder) {\n        \n        // load the init code to memory\n        bytes memory mInitCode = initCode;\n\n        // compute the salt from the destination\n        bytes32 salt = keccak256(abi.encodePacked(_destination));\n\n        assembly {\n            forwarder := create2(0, mInitCode, 0x37, salt)\n        }\n    }\n\n    function _getInitCode(address _implementation) internal pure returns (bytes memory code) {\n        bytes20 targetBytes = bytes20(_implementation);\n        code = new bytes(55);\n        assembly {\n            mstore(add(code, 0x20), 0x3d602d80600a3d3981f3363d3d373d3d3d363d73000000000000000000000000)\n            mstore(add(code, add(0x20,0x14)), targetBytes)\n            mstore(add(code, add(0x20,0x28)), 0x5af43d82803e903d91602b57fd5bf30000000000000000000000000000000000)\n        }\n    }\n}",
  "sourcePath": "/Users/julienniset/Argent/dev/deposit-forwarder/contracts/MinimalForwarderFactory.sol",
  "compiler": {
    "name": "solc",
    "version": "0.7.0+commit.9e61f92b.Emscripten.clang"
  },
  "schemaVersion": "3.3.2",
  "updatedAt": "2020-11-13T09:40:35.744Z",
  "networkType": "ethereum",
  "devdoc": {
    "kind": "dev",
    "methods": {},
    "version": 1
  },
  "userdoc": {
    "kind": "user",
    "methods": {},
    "version": 1
  }
}